{
  "_format": "hh-sol-artifact-1",
  "contractName": "CashflowPoolFactory",
  "sourceName": "contracts/CashflowPoolFactory.sol",
  "abi": [
    {
      "inputs": [
        {
          "internalType": "address",
          "name": "_stablecoin",
          "type": "address"
        },
        {
          "internalType": "address",
          "name": "_oracleAddress",
          "type": "address"
        }
      ],
      "stateMutability": "nonpayable",
      "type": "constructor"
    },
    {
      "inputs": [
        {
          "internalType": "address",
          "name": "token",
          "type": "address"
        }
      ],
      "name": "SafeERC20FailedOperation",
      "type": "error"
    },
    {
      "anonymous": false,
      "inputs": [
        {
          "indexed": true,
          "internalType": "address",
          "name": "poolAddress",
          "type": "address"
        },
        {
          "indexed": true,
          "internalType": "address",
          "name": "businessAddress",
          "type": "address"
        },
        {
          "indexed": false,
          "internalType": "string",
          "name": "tokenName",
          "type": "string"
        },
        {
          "indexed": false,
          "internalType": "string",
          "name": "tokenSymbol",
          "type": "string"
        },
        {
          "indexed": false,
          "internalType": "uint256",
          "name": "stakedAmount",
          "type": "uint256"
        }
      ],
      "name": "PoolCreated",
      "type": "event"
    },
    {
      "inputs": [
        {
          "internalType": "uint256",
          "name": "",
          "type": "uint256"
        }
      ],
      "name": "allPools",
      "outputs": [
        {
          "internalType": "contract CashflowPool",
          "name": "",
          "type": "address"
        }
      ],
      "stateMutability": "view",
      "type": "function"
    },
    {
      "inputs": [
        {
          "internalType": "string",
          "name": "_tokenName",
          "type": "string"
        },
        {
          "internalType": "string",
          "name": "_tokenSymbol",
          "type": "string"
        },
        {
          "internalType": "uint256",
          "name": "_fundingTarget",
          "type": "uint256"
        },
        {
          "internalType": "uint256",
          "name": "_fundDurationDays",
          "type": "uint256"
        },
        {
          "internalType": "uint256",
          "name": "_revenueSharePercentage",
          "type": "uint256"
        },
        {
          "internalType": "uint256",
          "name": "_stakeAmount",
          "type": "uint256"
        }
      ],
      "name": "createPool",
      "outputs": [
        {
          "internalType": "address",
          "name": "",
          "type": "address"
        }
      ],
      "stateMutability": "nonpayable",
      "type": "function"
    },
    {
      "inputs": [],
      "name": "getPoolsCount",
      "outputs": [
        {
          "internalType": "uint256",
          "name": "",
          "type": "uint256"
        }
      ],
      "stateMutability": "view",
      "type": "function"
    },
    {
      "inputs": [],
      "name": "minStakePercentage",
      "outputs": [
        {
          "internalType": "uint256",
          "name": "",
          "type": "uint256"
        }
      ],
      "stateMutability": "view",
      "type": "function"
    },
    {
      "inputs": [],
      "name": "oracleAddress",
      "outputs": [
        {
          "internalType": "address",
          "name": "",
          "type": "address"
        }
      ],
      "stateMutability": "view",
      "type": "function"
    },
    {
      "inputs": [],
      "name": "owner",
      "outputs": [
        {
          "internalType": "address",
          "name": "",
          "type": "address"
        }
      ],
      "stateMutability": "view",
      "type": "function"
    },
    {
      "inputs": [],
      "name": "stablecoin",
      "outputs": [
        {
          "internalType": "address",
          "name": "",
          "type": "address"
        }
      ],
      "stateMutability": "view",
      "type": "function"
    }
  ],
  "bytecode": "0x60806040526103e860035534801561001657600080fd5b5060405162004ccf38038062004ccf833981810160405281019061003a9190610166565b336000806101000a81548173ffffffffffffffffffffffffffffffffffffffff021916908373ffffffffffffffffffffffffffffffffffffffff16021790555081600260006101000a81548173ffffffffffffffffffffffffffffffffffffffff021916908373ffffffffffffffffffffffffffffffffffffffff16021790555080600160006101000a81548173ffffffffffffffffffffffffffffffffffffffff021916908373ffffffffffffffffffffffffffffffffffffffff16021790555050506101a6565b600080fd5b600073ffffffffffffffffffffffffffffffffffffffff82169050919050565b600061013382610108565b9050919050565b61014381610128565b811461014e57600080fd5b50565b6000815190506101608161013a565b92915050565b6000806040838503121561017d5761017c610103565b5b600061018b85828601610151565b925050602061019c85828601610151565b9150509250929050565b614b1980620001b66000396000f3fe60806040523480156200001157600080fd5b5060043610620000885760003560e01c8063a89ae4ba1162000063578063a89ae4ba146200011b578063b4ac6860146200013d578063e9cbd822146200015f578063fac0183814620001815762000088565b806341d1de97146200008d57806385fbd1cb14620000c35780638da5cb5b14620000f9575b600080fd5b620000ab6004803603810190620000a59190620005a2565b620001a3565b604051620000ba91906200065f565b60405180910390f35b620000e16004803603810190620000db9190620007de565b620001e3565b604051620000f09190620008dd565b60405180910390f35b62000103620003eb565b604051620001129190620008dd565b60405180910390f35b620001256200040f565b604051620001349190620008dd565b60405180910390f35b6200014762000435565b6040516200015691906200090b565b60405180910390f35b6200016962000442565b604051620001789190620008dd565b60405180910390f35b6200018b62000468565b6040516200019a91906200090b565b60405180910390f35b60048181548110620001b457600080fd5b906000526020600020016000915054906101000a900473ffffffffffffffffffffffffffffffffffffffff1681565b60008061271060035487620001f9919062000957565b620002059190620009d1565b9050808310156200024d576040517f08c379a0000000000000000000000000000000000000000000000000000000008152600401620002449062000a6a565b60405180910390fd5b6000600260009054906101000a900473ffffffffffffffffffffffffffffffffffffffff1633600160009054906101000a900473ffffffffffffffffffffffffffffffffffffffff168b8b8b8b8b8b604051620002aa9062000545565b620002be9998979695949392919062000b04565b604051809103906000f080158015620002db573d6000803e3d6000fd5b5090506200030e600260009054906101000a900473ffffffffffffffffffffffffffffffffffffffff163383876200046e565b6004819080600181540180825580915050600190039060005260206000200160009091909190916101000a81548173ffffffffffffffffffffffffffffffffffffffff021916908373ffffffffffffffffffffffffffffffffffffffff1602179055503373ffffffffffffffffffffffffffffffffffffffff168173ffffffffffffffffffffffffffffffffffffffff167fe1f8217202548da23708041bcc709f43f5f862b1d72301f48b31962bfb885abf8b8b88604051620003d49392919062000bb1565b60405180910390a380925050509695505050505050565b60008054906101000a900473ffffffffffffffffffffffffffffffffffffffff1681565b600160009054906101000a900473ffffffffffffffffffffffffffffffffffffffff1681565b6000600480549050905090565b600260009054906101000a900473ffffffffffffffffffffffffffffffffffffffff1681565b60035481565b6200047e848484846001620004c8565b620004c257836040517f5274afe7000000000000000000000000000000000000000000000000000000008152600401620004b99190620008dd565b60405180910390fd5b50505050565b6000806323b872dd60e01b90506040518160005260001960601c871660045260001960601c8616602452846044526020600060646000808c5af1925060016000511483166200053157838315161562000524573d6000823e3d81fd5b6000883b113d1516831692505b806040526000606052505095945050505050565b613ee78062000bfd83390190565b6000604051905090565b600080fd5b600080fd5b6000819050919050565b6200057c8162000567565b81146200058857600080fd5b50565b6000813590506200059c8162000571565b92915050565b600060208284031215620005bb57620005ba6200055d565b5b6000620005cb848285016200058b565b91505092915050565b600073ffffffffffffffffffffffffffffffffffffffff82169050919050565b6000819050919050565b60006200061f620006196200061384620005d4565b620005f4565b620005d4565b9050919050565b60006200063382620005fe565b9050919050565b6000620006478262000626565b9050919050565b62000659816200063a565b82525050565b60006020820190506200067660008301846200064e565b92915050565b600080fd5b600080fd5b6000601f19601f8301169050919050565b7f4e487b7100000000000000000000000000000000000000000000000000000000600052604160045260246000fd5b620006d18262000686565b810181811067ffffffffffffffff82111715620006f357620006f262000697565b5b80604052505050565b60006200070862000553565b9050620007168282620006c6565b919050565b600067ffffffffffffffff82111562000739576200073862000697565b5b620007448262000686565b9050602081019050919050565b82818337600083830152505050565b60006200077762000771846200071b565b620006fc565b90508281526020810184848401111562000796576200079562000681565b5b620007a384828562000751565b509392505050565b600082601f830112620007c357620007c26200067c565b5b8135620007d584826020860162000760565b91505092915050565b60008060008060008060c08789031215620007fe57620007fd6200055d565b5b600087013567ffffffffffffffff8111156200081f576200081e62000562565b5b6200082d89828a01620007ab565b965050602087013567ffffffffffffffff81111562000851576200085062000562565b5b6200085f89828a01620007ab565b95505060406200087289828a016200058b565b94505060606200088589828a016200058b565b93505060806200089889828a016200058b565b92505060a0620008ab89828a016200058b565b9150509295509295509295565b6000620008c582620005d4565b9050919050565b620008d781620008b8565b82525050565b6000602082019050620008f46000830184620008cc565b92915050565b620009058162000567565b82525050565b6000602082019050620009226000830184620008fa565b92915050565b7f4e487b7100000000000000000000000000000000000000000000000000000000600052601160045260246000fd5b6000620009648262000567565b9150620009718362000567565b9250828202620009818162000567565b915082820484148315176200099b576200099a62000928565b5b5092915050565b7f4e487b7100000000000000000000000000000000000000000000000000000000600052601260045260246000fd5b6000620009de8262000567565b9150620009eb8362000567565b925082620009fe57620009fd620009a2565b5b828204905092915050565b600082825260208201905092915050565b7f496e73756666696369656e74207374616b6520616d6f756e7400000000000000600082015250565b600062000a5260198362000a09565b915062000a5f8262000a1a565b602082019050919050565b6000602082019050818103600083015262000a858162000a43565b9050919050565b600081519050919050565b60005b8381101562000ab757808201518184015260208101905062000a9a565b60008484015250505050565b600062000ad08262000a8c565b62000adc818562000a09565b935062000aee81856020860162000a97565b62000af98162000686565b840191505092915050565b60006101208201905062000b1c600083018c620008cc565b62000b2b602083018b620008cc565b62000b3a604083018a620008cc565b818103606083015262000b4e818962000ac3565b9050818103608083015262000b64818862000ac3565b905062000b7560a0830187620008fa565b62000b8460c0830186620008fa565b62000b9360e0830185620008fa565b62000ba3610100830184620008fa565b9a9950505050505050505050565b6000606082019050818103600083015262000bcd818662000ac3565b9050818103602083015262000be3818562000ac3565b905062000bf46040830184620008fa565b94935050505056fe60806040523480156200001157600080fd5b5060405162003ee738038062003ee783398181016040528101906200003791906200054c565b33600073ffffffffffffffffffffffffffffffffffffffff168173ffffffffffffffffffffffffffffffffffffffff1603620000ad5760006040517f1e4fbdf7000000000000000000000000000000000000000000000000000000008152600401620000a491906200067a565b60405180910390fd5b620000be816200024760201b60201c565b5088600160006101000a81548173ffffffffffffffffffffffffffffffffffffffff021916908373ffffffffffffffffffffffffffffffffffffffff16021790555087600360006101000a81548173ffffffffffffffffffffffffffffffffffffffff021916908373ffffffffffffffffffffffffffffffffffffffff16021790555086600460006101000a81548173ffffffffffffffffffffffffffffffffffffffff021916908373ffffffffffffffffffffffffffffffffffffffff1602179055508360058190555062015180836200019a9190620006c6565b42620001a7919062000711565b6007819055508160088190555080600981905550858530604051620001cc906200030b565b620001da93929190620007a9565b604051809103906000f080158015620001f7573d6000803e3d6000fd5b50600260006101000a81548173ffffffffffffffffffffffffffffffffffffffff021916908373ffffffffffffffffffffffffffffffffffffffff160217905550505050505050505050620007f4565b60008060009054906101000a900473ffffffffffffffffffffffffffffffffffffffff169050816000806101000a81548173ffffffffffffffffffffffffffffffffffffffff021916908373ffffffffffffffffffffffffffffffffffffffff1602179055508173ffffffffffffffffffffffffffffffffffffffff168173ffffffffffffffffffffffffffffffffffffffff167f8be0079c531659141344cd1fd0a4f28419497f9722a3daafe3b4186f6b6457e060405160405180910390a35050565b611953806200259483390190565b6000604051905090565b600080fd5b600080fd5b600073ffffffffffffffffffffffffffffffffffffffff82169050919050565b60006200035a826200032d565b9050919050565b6200036c816200034d565b81146200037857600080fd5b50565b6000815190506200038c8162000361565b92915050565b600080fd5b600080fd5b6000601f19601f8301169050919050565b7f4e487b7100000000000000000000000000000000000000000000000000000000600052604160045260246000fd5b620003e7826200039c565b810181811067ffffffffffffffff82111715620004095762000408620003ad565b5b80604052505050565b60006200041e62000319565b90506200042c8282620003dc565b919050565b600067ffffffffffffffff8211156200044f576200044e620003ad565b5b6200045a826200039c565b9050602081019050919050565b60005b83811015620004875780820151818401526020810190506200046a565b60008484015250505050565b6000620004aa620004a48462000431565b62000412565b905082815260208101848484011115620004c957620004c862000397565b5b620004d684828562000467565b509392505050565b600082601f830112620004f657620004f562000392565b5b81516200050884826020860162000493565b91505092915050565b6000819050919050565b620005268162000511565b81146200053257600080fd5b50565b60008151905062000546816200051b565b92915050565b60008060008060008060008060006101208a8c03121562000572576200057162000323565b5b6000620005828c828d016200037b565b9950506020620005958c828d016200037b565b9850506040620005a88c828d016200037b565b97505060608a015167ffffffffffffffff811115620005cc57620005cb62000328565b5b620005da8c828d01620004de565b96505060808a015167ffffffffffffffff811115620005fe57620005fd62000328565b5b6200060c8c828d01620004de565b95505060a06200061f8c828d0162000535565b94505060c0620006328c828d0162000535565b93505060e0620006458c828d0162000535565b925050610100620006598c828d0162000535565b9150509295985092959850929598565b62000674816200034d565b82525050565b600060208201905062000691600083018462000669565b92915050565b7f4e487b7100000000000000000000000000000000000000000000000000000000600052601160045260246000fd5b6000620006d38262000511565b9150620006e08362000511565b9250828202620006f08162000511565b915082820484148315176200070a576200070962000697565b5b5092915050565b60006200071e8262000511565b91506200072b8362000511565b925082820190508082111562000746576200074562000697565b5b92915050565b600081519050919050565b600082825260208201905092915050565b600062000775826200074c565b62000781818562000757565b93506200079381856020860162000467565b6200079e816200039c565b840191505092915050565b60006060820190508181036000830152620007c5818662000768565b90508181036020830152620007db818562000768565b9050620007ec604083018462000669565b949350505050565b611d9080620008046000396000f3fe608060405234801561001057600080fd5b50600436106101585760003560e01c8063939d6237116100c3578063bc1ca3e91161007c578063bc1ca3e914610349578063d411eccb14610365578063e9cbd82214610383578063eb04c36c146103a1578063ef11753c146103bf578063f2fde38b146103dd57610158565b8063939d6237146102ab5780639624fefb146102c95780639c378d80146102e75780639c6e0268146102f1578063a89ae4ba1461030f578063b03b3ef01461032d57610158565b80635413713a116101155780635413713a1461020d5780635873eb9b146102175780636ad236c314610247578063715018a6146102655780637c6543031461026f5780638da5cb5b1461028d57610158565b80630335729e1461015d5780631583deb21461017b5780632afcf48014610199578063373d6132146101b5578063387088aa146101d3578063406cf22914610203575b600080fd5b6101656103f9565b60405161017291906115c1565b60405180910390f35b61018361040c565b604051610190919061161d565b60405180910390f35b6101b360048036038101906101ae9190611673565b610432565b005b6101bd6107ae565b6040516101ca91906116af565b60405180910390f35b6101ed60048036038101906101e891906116f6565b6107b4565b6040516101fa91906116af565b60405180910390f35b61020b6107cc565b005b6102156107d7565b005b610231600480360381019061022c91906116f6565b610a67565b60405161023e91906116af565b60405180910390f35b61024f610a7f565b60405161025c9190611782565b60405180910390f35b61026d610aa5565b005b610277610ab9565b60405161028491906115c1565b60405180910390f35b610295610acc565b6040516102a2919061161d565b60405180910390f35b6102b3610af5565b6040516102c091906116af565b60405180910390f35b6102d1610afb565b6040516102de91906116af565b60405180910390f35b6102ef610b01565b005b6102f9610b61565b60405161030691906116af565b60405180910390f35b610317610b67565b604051610324919061161d565b60405180910390f35b610347600480360381019061034291906116f6565b610b8d565b005b610363600480360381019061035e9190611673565b610c7b565b005b61036d610f87565b60405161037a91906116af565b60405180910390f35b61038b610f8d565b60405161039891906117be565b60405180910390f35b6103a9610fb3565b6040516103b691906116af565b60405180910390f35b6103c7610fb9565b6040516103d491906116af565b60405180910390f35b6103f760048036038101906103f291906116f6565b610fbf565b005b600a60009054906101000a900460ff1681565b600360009054906101000a900473ffffffffffffffffffffffffffffffffffffffff1681565b600754421115610477576040517f08c379a000000000000000000000000000000000000000000000000000000000815260040161046e90611836565b60405180910390fd5b600f60009054906101000a900460ff16156104c7576040517f08c379a00000000000000000000000000000000000000000000000000000000081526004016104be906118a2565b60405180910390fd5b6000811161050a576040517f08c379a00000000000000000000000000000000000000000000000000000000081526004016105019061190e565b60405180910390fd5b600081905060055482600654610520919061195d565b1115610539576006546005546105369190611991565b90505b61054233611045565b610591333083600160009054906101000a900473ffffffffffffffffffffffffffffffffffffffff1673ffffffffffffffffffffffffffffffffffffffff166112c1909392919063ffffffff16565b80600660008282546105a3919061195d565b92505081905550600260009054906101000a900473ffffffffffffffffffffffffffffffffffffffff1673ffffffffffffffffffffffffffffffffffffffff166340c10f1933836040518363ffffffff1660e01b81526004016106079291906119c5565b600060405180830381600087803b15801561062157600080fd5b505af1158015610635573d6000803e3d6000fd5b5050505064e8d4a51000600c54600260009054906101000a900473ffffffffffffffffffffffffffffffffffffffff1673ffffffffffffffffffffffffffffffffffffffff166370a08231336040518263ffffffff1660e01b815260040161069d919061161d565b602060405180830381865afa1580156106ba573d6000803e3d6000fd5b505050506040513d601f19601f820116820180604052508101906106de9190611a03565b6106e89190611a30565b6106f29190611aa1565b600d60003373ffffffffffffffffffffffffffffffffffffffff1673ffffffffffffffffffffffffffffffffffffffff168152602001908152602001600020819055503373ffffffffffffffffffffffffffffffffffffffff167f07146ef3ff2146eaf34fa4d392d4c56663333b682654b3123bf270f9ec529f318260405161077b91906116af565b60405180910390a2600554600654106107aa576001600f60006101000a81548160ff0219169083151502179055505b5050565b60095481565b600e6020528060005260406000206000915090505481565b6107d533611045565b565b600360009054906101000a900473ffffffffffffffffffffffffffffffffffffffff1673ffffffffffffffffffffffffffffffffffffffff163373ffffffffffffffffffffffffffffffffffffffff1614610867576040517f08c379a000000000000000000000000000000000000000000000000000000000815260040161085e90611b1e565b60405180910390fd5b6000610871611316565b600b54600160009054906101000a900473ffffffffffffffffffffffffffffffffffffffff1673ffffffffffffffffffffffffffffffffffffffff166370a08231306040518263ffffffff1660e01b81526004016108cf919061161d565b602060405180830381865afa1580156108ec573d6000803e3d6000fd5b505050506040513d601f19601f820116820180604052508101906109109190611a03565b61091a9190611991565b610924919061195d565b905060008111610969576040517f08c379a000000000000000000000000000000000000000000000000000000000815260040161096090611b8a565b60405180910390fd5b600060065490506000600654116109b5576040517f08c379a00000000000000000000000000000000000000000000000000000000081526004016109ac90611bf6565b60405180910390fd5b6000600681905550610a2c600360009054906101000a900473ffffffffffffffffffffffffffffffffffffffff1682600160009054906101000a900473ffffffffffffffffffffffffffffffffffffffff1673ffffffffffffffffffffffffffffffffffffffff1661131b9092919063ffffffff16565b7f4d3a0cc3050e128b4c327f8899a6ba0496784fec7f1184a7e78a4c458a67db4d81604051610a5b91906116af565b60405180910390a15050565b600d6020528060005260406000206000915090505481565b600260009054906101000a900473ffffffffffffffffffffffffffffffffffffffff1681565b610aad61136e565b610ab760006113f5565b565b600f60009054906101000a900460ff1681565b60008060009054906101000a900473ffffffffffffffffffffffffffffffffffffffff16905090565b600c5481565b600b5481565b6001600a60006101000a81548160ff0219169083151502179055503373ffffffffffffffffffffffffffffffffffffffff167f3d9cae66102bbfa6afdc3fa1abed30761082a645729f52fde61669840f41da0260405160405180910390a2565b60075481565b600460009054906101000a900473ffffffffffffffffffffffffffffffffffffffff1681565b610b9561136e565b600a60009054906101000a900460ff16610be4576040517f08c379a0000000000000000000000000000000000000000000000000000000008152600401610bdb90611c62565b60405180910390fd5b600060095490506000600981905550610c408282600160009054906101000a900473ffffffffffffffffffffffffffffffffffffffff1673ffffffffffffffffffffffffffffffffffffffff1661131b9092919063ffffffff16565b7fb2ef1f3853b1dc2d656078a840e954bab06ad5b3e3d73c561d25559a88ac21e481604051610c6f91906116af565b60405180910390a15050565b600460009054906101000a900473ffffffffffffffffffffffffffffffffffffffff1673ffffffffffffffffffffffffffffffffffffffff163373ffffffffffffffffffffffffffffffffffffffff1614610d0b576040517f08c379a0000000000000000000000000000000000000000000000000000000008152600401610d0290611cce565b60405180910390fd5b60008111610d4e576040517f08c379a0000000000000000000000000000000000000000000000000000000008152600401610d459061190e565b60405180910390fd5b6000600260009054906101000a900473ffffffffffffffffffffffffffffffffffffffff1673ffffffffffffffffffffffffffffffffffffffff166318160ddd6040518163ffffffff1660e01b8152600401602060405180830381865afa158015610dbd573d6000803e3d6000fd5b505050506040513d601f19601f82011682018060405250810190610de19190611a03565b11610e21576040517f08c379a0000000000000000000000000000000000000000000000000000000008152600401610e1890611d3a565b60405180910390fd5b610e70333083600160009054906101000a900473ffffffffffffffffffffffffffffffffffffffff1673ffffffffffffffffffffffffffffffffffffffff166112c1909392919063ffffffff16565b80600b6000828254610e82919061195d565b92505081905550600260009054906101000a900473ffffffffffffffffffffffffffffffffffffffff1673ffffffffffffffffffffffffffffffffffffffff166318160ddd6040518163ffffffff1660e01b8152600401602060405180830381865afa158015610ef6573d6000803e3d6000fd5b505050506040513d601f19601f82011682018060405250810190610f1a9190611a03565b64e8d4a5100082610f2b9190611a30565b610f359190611aa1565b600c6000828254610f46919061195d565b925050819055507fa233bf660ff45a53efdacc9f262f3ba6a03b00e58e587d8536a4cfec59680a1c81604051610f7c91906116af565b60405180910390a150565b60055481565b600160009054906101000a900473ffffffffffffffffffffffffffffffffffffffff1681565b60065481565b60085481565b610fc761136e565b600073ffffffffffffffffffffffffffffffffffffffff168173ffffffffffffffffffffffffffffffffffffffff16036110395760006040517f1e4fbdf7000000000000000000000000000000000000000000000000000000008152600401611030919061161d565b60405180910390fd5b611042816113f5565b50565b6000600260009054906101000a900473ffffffffffffffffffffffffffffffffffffffff1673ffffffffffffffffffffffffffffffffffffffff166370a08231836040518263ffffffff1660e01b81526004016110a2919061161d565b602060405180830381865afa1580156110bf573d6000803e3d6000fd5b505050506040513d601f19601f820116820180604052508101906110e39190611a03565b9050600081036110f357506112be565b6000600d60008473ffffffffffffffffffffffffffffffffffffffff1673ffffffffffffffffffffffffffffffffffffffff1681526020019081526020016000205464e8d4a51000600c54846111499190611a30565b6111539190611aa1565b61115d9190611991565b905060008111156112bb5764e8d4a51000600c548361117c9190611a30565b6111869190611aa1565b600d60008573ffffffffffffffffffffffffffffffffffffffff1673ffffffffffffffffffffffffffffffffffffffff1681526020019081526020016000208190555080600e60008573ffffffffffffffffffffffffffffffffffffffff1673ffffffffffffffffffffffffffffffffffffffff1681526020019081526020016000206000828254611218919061195d565b9250508190555061126c8382600160009054906101000a900473ffffffffffffffffffffffffffffffffffffffff1673ffffffffffffffffffffffffffffffffffffffff1661131b9092919063ffffffff16565b8273ffffffffffffffffffffffffffffffffffffffff167fc04825ba3f383b602255d2a13065a68e325c65c9e0ed5d031ea2b06f641873af826040516112b291906116af565b60405180910390a25b50505b50565b6112cf8484848460016114b9565b61131057836040517f5274afe7000000000000000000000000000000000000000000000000000000008152600401611307919061161d565b60405180910390fd5b50505050565b600090565b6113288383836001611534565b61136957826040517f5274afe7000000000000000000000000000000000000000000000000000000008152600401611360919061161d565b60405180910390fd5b505050565b61137661159e565b73ffffffffffffffffffffffffffffffffffffffff16611394610acc565b73ffffffffffffffffffffffffffffffffffffffff16146113f3576113b761159e565b6040517f118cdaa70000000000000000000000000000000000000000000000000000000081526004016113ea919061161d565b60405180910390fd5b565b60008060009054906101000a900473ffffffffffffffffffffffffffffffffffffffff169050816000806101000a81548173ffffffffffffffffffffffffffffffffffffffff021916908373ffffffffffffffffffffffffffffffffffffffff1602179055508173ffffffffffffffffffffffffffffffffffffffff168173ffffffffffffffffffffffffffffffffffffffff167f8be0079c531659141344cd1fd0a4f28419497f9722a3daafe3b4186f6b6457e060405160405180910390a35050565b6000806323b872dd60e01b90506040518160005260001960601c871660045260001960601c8616602452846044526020600060646000808c5af192506001600051148316611520578383151615611513573d6000823e3d81fd5b6000883b113d1516831692505b806040526000606052505095945050505050565b60008063a9059cbb60e01b90506040518160005260001960601c8616600452846024526020600060446000808b5af192506001600051148316611590578383151615611583573d6000823e3d81fd5b6000873b113d1516831692505b806040525050949350505050565b600033905090565b60008115159050919050565b6115bb816115a6565b82525050565b60006020820190506115d660008301846115b2565b92915050565b600073ffffffffffffffffffffffffffffffffffffffff82169050919050565b6000611607826115dc565b9050919050565b611617816115fc565b82525050565b6000602082019050611632600083018461160e565b92915050565b600080fd5b6000819050919050565b6116508161163d565b811461165b57600080fd5b50565b60008135905061166d81611647565b92915050565b60006020828403121561168957611688611638565b5b60006116978482850161165e565b91505092915050565b6116a98161163d565b82525050565b60006020820190506116c460008301846116a0565b92915050565b6116d3816115fc565b81146116de57600080fd5b50565b6000813590506116f0816116ca565b92915050565b60006020828403121561170c5761170b611638565b5b600061171a848285016116e1565b91505092915050565b6000819050919050565b600061174861174361173e846115dc565b611723565b6115dc565b9050919050565b600061175a8261172d565b9050919050565b600061176c8261174f565b9050919050565b61177c81611761565b82525050565b60006020820190506117976000830184611773565b92915050565b60006117a88261174f565b9050919050565b6117b88161179d565b82525050565b60006020820190506117d360008301846117af565b92915050565b600082825260208201905092915050565b7f46756e64696e6720706572696f642068617320656e6465640000000000000000600082015250565b60006118206018836117d9565b915061182b826117ea565b602082019050919050565b6000602082019050818103600083015261184f81611813565b9050919050565b7f506f6f6c20697320616c72656164792066756c6c792066756e64656400000000600082015250565b600061188c601c836117d9565b915061189782611856565b602082019050919050565b600060208201905081810360008301526118bb8161187f565b9050919050565b7f416d6f756e74206d757374206265203e20300000000000000000000000000000600082015250565b60006118f86012836117d9565b9150611903826118c2565b602082019050919050565b60006020820190508181036000830152611927816118eb565b9050919050565b7f4e487b7100000000000000000000000000000000000000000000000000000000600052601160045260246000fd5b60006119688261163d565b91506119738361163d565b925082820190508082111561198b5761198a61192e565b5b92915050565b600061199c8261163d565b91506119a78361163d565b92508282039050818111156119bf576119be61192e565b5b92915050565b60006040820190506119da600083018561160e565b6119e760208301846116a0565b9392505050565b6000815190506119fd81611647565b92915050565b600060208284031215611a1957611a18611638565b5b6000611a27848285016119ee565b91505092915050565b6000611a3b8261163d565b9150611a468361163d565b9250828202611a548161163d565b91508282048414831517611a6b57611a6a61192e565b5b5092915050565b7f4e487b7100000000000000000000000000000000000000000000000000000000600052601260045260246000fd5b6000611aac8261163d565b9150611ab78361163d565b925082611ac757611ac6611a72565b5b828204905092915050565b7f4f6e6c7920627573696e65737300000000000000000000000000000000000000600082015250565b6000611b08600d836117d9565b9150611b1382611ad2565b602082019050919050565b60006020820190508181036000830152611b3781611afb565b9050919050565b7f4e6f2066756e647320746f207769746864726177000000000000000000000000600082015250565b6000611b746014836117d9565b9150611b7f82611b3e565b602082019050919050565b60006020820190508181036000830152611ba381611b67565b9050919050565b7f4e6f2066756e64696e6700000000000000000000000000000000000000000000600082015250565b6000611be0600a836117d9565b9150611beb82611baa565b602082019050919050565b60006020820190508181036000830152611c0f81611bd3565b9050919050565b7f4e6f7420696e2064697370757465000000000000000000000000000000000000600082015250565b6000611c4c600e836117d9565b9150611c5782611c16565b602082019050919050565b60006020820190508181036000830152611c7b81611c3f565b9050919050565b7f4f6e6c79206f7261636c652063616e2063616c6c000000000000000000000000600082015250565b6000611cb86014836117d9565b9150611cc382611c82565b602082019050919050565b60006020820190508181036000830152611ce781611cab565b9050919050565b7f4e6f20696e766573746f72730000000000000000000000000000000000000000600082015250565b6000611d24600c836117d9565b9150611d2f82611cee565b602082019050919050565b60006020820190508181036000830152611d5381611d17565b905091905056fea26469706673582212204c2f7af7940a18e0ed7f809e777a86fb1efac77615d57101cbbc4e1d597e96b864736f6c6343000814003360806040523480156200001157600080fd5b5060405162001953380380620019538339818101604052810190620000379190620003ae565b80838381600390816200004b919062000693565b5080600490816200005d919062000693565b505050600073ffffffffffffffffffffffffffffffffffffffff168173ffffffffffffffffffffffffffffffffffffffff1603620000d55760006040517f1e4fbdf7000000000000000000000000000000000000000000000000000000008152600401620000cc91906200078b565b60405180910390fd5b620000e681620000f060201b60201c565b50505050620007a8565b6000600560009054906101000a900473ffffffffffffffffffffffffffffffffffffffff16905081600560006101000a81548173ffffffffffffffffffffffffffffffffffffffff021916908373ffffffffffffffffffffffffffffffffffffffff1602179055508173ffffffffffffffffffffffffffffffffffffffff168173ffffffffffffffffffffffffffffffffffffffff167f8be0079c531659141344cd1fd0a4f28419497f9722a3daafe3b4186f6b6457e060405160405180910390a35050565b6000604051905090565b600080fd5b600080fd5b600080fd5b600080fd5b6000601f19601f8301169050919050565b7f4e487b7100000000000000000000000000000000000000000000000000000000600052604160045260246000fd5b6200021f82620001d4565b810181811067ffffffffffffffff82111715620002415762000240620001e5565b5b80604052505050565b600062000256620001b6565b905062000264828262000214565b919050565b600067ffffffffffffffff821115620002875762000286620001e5565b5b6200029282620001d4565b9050602081019050919050565b60005b83811015620002bf578082015181840152602081019050620002a2565b60008484015250505050565b6000620002e2620002dc8462000269565b6200024a565b905082815260208101848484011115620003015762000300620001cf565b5b6200030e8482856200029f565b509392505050565b600082601f8301126200032e576200032d620001ca565b5b815162000340848260208601620002cb565b91505092915050565b600073ffffffffffffffffffffffffffffffffffffffff82169050919050565b6000620003768262000349565b9050919050565b620003888162000369565b81146200039457600080fd5b50565b600081519050620003a8816200037d565b92915050565b600080600060608486031215620003ca57620003c9620001c0565b5b600084015167ffffffffffffffff811115620003eb57620003ea620001c5565b5b620003f98682870162000316565b935050602084015167ffffffffffffffff8111156200041d576200041c620001c5565b5b6200042b8682870162000316565b92505060406200043e8682870162000397565b9150509250925092565b600081519050919050565b7f4e487b7100000000000000000000000000000000000000000000000000000000600052602260045260246000fd5b600060028204905060018216806200049b57607f821691505b602082108103620004b157620004b062000453565b5b50919050565b60008190508160005260206000209050919050565b60006020601f8301049050919050565b600082821b905092915050565b6000600883026200051b7fffffffffffffffffffffffffffffffffffffffffffffffffffffffffffffffff82620004dc565b620005278683620004dc565b95508019841693508086168417925050509392505050565b6000819050919050565b6000819050919050565b6000620005746200056e62000568846200053f565b62000549565b6200053f565b9050919050565b6000819050919050565b620005908362000553565b620005a86200059f826200057b565b848454620004e9565b825550505050565b600090565b620005bf620005b0565b620005cc81848462000585565b505050565b5b81811015620005f457620005e8600082620005b5565b600181019050620005d2565b5050565b601f82111562000643576200060d81620004b7565b6200061884620004cc565b8101602085101562000628578190505b620006406200063785620004cc565b830182620005d1565b50505b505050565b600082821c905092915050565b6000620006686000198460080262000648565b1980831691505092915050565b600062000683838362000655565b9150826002028217905092915050565b6200069e8262000448565b67ffffffffffffffff811115620006ba57620006b9620001e5565b5b620006c6825462000482565b620006d3828285620005f8565b600060209050601f8311600181146200070b5760008415620006f6578287015190505b62000702858262000675565b86555062000772565b601f1984166200071b86620004b7565b60005b8281101562000745578489015182556001820191506020850194506020810190506200071e565b8683101562000765578489015162000761601f89168262000655565b8355505b6001600288020188555050505b505050505050565b620007858162000369565b82525050565b6000602082019050620007a260008301846200077a565b92915050565b61119b80620007b86000396000f3fe608060405234801561001057600080fd5b50600436106100cf5760003560e01c806370a082311161008c57806395d89b411161006657806395d89b4114610202578063a9059cbb14610220578063dd62ed3e14610250578063f2fde38b14610280576100cf565b806370a08231146101aa578063715018a6146101da5780638da5cb5b146101e4576100cf565b806306fdde03146100d4578063095ea7b3146100f257806318160ddd1461012257806323b872dd14610140578063313ce5671461017057806340c10f191461018e575b600080fd5b6100dc61029c565b6040516100e99190610def565b60405180910390f35b61010c60048036038101906101079190610eaa565b61032e565b6040516101199190610f05565b60405180910390f35b61012a610351565b6040516101379190610f2f565b60405180910390f35b61015a60048036038101906101559190610f4a565b61035b565b6040516101679190610f05565b60405180910390f35b61017861038a565b6040516101859190610fb9565b60405180910390f35b6101a860048036038101906101a39190610eaa565b610393565b005b6101c460048036038101906101bf9190610fd4565b6103a9565b6040516101d19190610f2f565b60405180910390f35b6101e26103f1565b005b6101ec610405565b6040516101f99190611010565b60405180910390f35b61020a61042f565b6040516102179190610def565b60405180910390f35b61023a60048036038101906102359190610eaa565b6104c1565b6040516102479190610f05565b60405180910390f35b61026a6004803603810190610265919061102b565b6104e4565b6040516102779190610f2f565b60405180910390f35b61029a60048036038101906102959190610fd4565b61056b565b005b6060600380546102ab9061109a565b80601f01602080910402602001604051908101604052809291908181526020018280546102d79061109a565b80156103245780601f106102f957610100808354040283529160200191610324565b820191906000526020600020905b81548152906001019060200180831161030757829003601f168201915b5050505050905090565b6000806103396105f1565b90506103468185856105f9565b600191505092915050565b6000600254905090565b6000806103666105f1565b905061037385828561060b565b61037e8585856106a0565b60019150509392505050565b60006012905090565b61039b610794565b6103a5828261081b565b5050565b60008060008373ffffffffffffffffffffffffffffffffffffffff1673ffffffffffffffffffffffffffffffffffffffff168152602001908152602001600020549050919050565b6103f9610794565b610403600061089d565b565b6000600560009054906101000a900473ffffffffffffffffffffffffffffffffffffffff16905090565b60606004805461043e9061109a565b80601f016020809104026020016040519081016040528092919081815260200182805461046a9061109a565b80156104b75780601f1061048c576101008083540402835291602001916104b7565b820191906000526020600020905b81548152906001019060200180831161049a57829003601f168201915b5050505050905090565b6000806104cc6105f1565b90506104d98185856106a0565b600191505092915050565b6000600160008473ffffffffffffffffffffffffffffffffffffffff1673ffffffffffffffffffffffffffffffffffffffff16815260200190815260200160002060008373ffffffffffffffffffffffffffffffffffffffff1673ffffffffffffffffffffffffffffffffffffffff16815260200190815260200160002054905092915050565b610573610794565b600073ffffffffffffffffffffffffffffffffffffffff168173ffffffffffffffffffffffffffffffffffffffff16036105e55760006040517f1e4fbdf70000000000000000000000000000000000000000000000000000000081526004016105dc9190611010565b60405180910390fd5b6105ee8161089d565b50565b600033905090565b6106068383836001610963565b505050565b600061061784846104e4565b90507fffffffffffffffffffffffffffffffffffffffffffffffffffffffffffffffff81101561069a578181101561068a578281836040517ffb8f41b2000000000000000000000000000000000000000000000000000000008152600401610681939291906110cb565b60405180910390fd5b61069984848484036000610963565b5b50505050565b600073ffffffffffffffffffffffffffffffffffffffff168373ffffffffffffffffffffffffffffffffffffffff16036107125760006040517f96c6fd1e0000000000000000000000000000000000000000000000000000000081526004016107099190611010565b60405180910390fd5b600073ffffffffffffffffffffffffffffffffffffffff168273ffffffffffffffffffffffffffffffffffffffff16036107845760006040517fec442f0500000000000000000000000000000000000000000000000000000000815260040161077b9190611010565b60405180910390fd5b61078f838383610b3a565b505050565b61079c6105f1565b73ffffffffffffffffffffffffffffffffffffffff166107ba610405565b73ffffffffffffffffffffffffffffffffffffffff1614610819576107dd6105f1565b6040517f118cdaa70000000000000000000000000000000000000000000000000000000081526004016108109190611010565b60405180910390fd5b565b600073ffffffffffffffffffffffffffffffffffffffff168273ffffffffffffffffffffffffffffffffffffffff160361088d5760006040517fec442f050000000000000000000000000000000000000000000000000000000081526004016108849190611010565b60405180910390fd5b61089960008383610b3a565b5050565b6000600560009054906101000a900473ffffffffffffffffffffffffffffffffffffffff16905081600560006101000a81548173ffffffffffffffffffffffffffffffffffffffff021916908373ffffffffffffffffffffffffffffffffffffffff1602179055508173ffffffffffffffffffffffffffffffffffffffff168173ffffffffffffffffffffffffffffffffffffffff167f8be0079c531659141344cd1fd0a4f28419497f9722a3daafe3b4186f6b6457e060405160405180910390a35050565b600073ffffffffffffffffffffffffffffffffffffffff168473ffffffffffffffffffffffffffffffffffffffff16036109d55760006040517fe602df050000000000000000000000000000000000000000000000000000000081526004016109cc9190611010565b60405180910390fd5b600073ffffffffffffffffffffffffffffffffffffffff168373ffffffffffffffffffffffffffffffffffffffff1603610a475760006040517f94280d62000000000000000000000000000000000000000000000000000000008152600401610a3e9190611010565b60405180910390fd5b81600160008673ffffffffffffffffffffffffffffffffffffffff1673ffffffffffffffffffffffffffffffffffffffff16815260200190815260200160002060008573ffffffffffffffffffffffffffffffffffffffff1673ffffffffffffffffffffffffffffffffffffffff168152602001908152602001600020819055508015610b34578273ffffffffffffffffffffffffffffffffffffffff168473ffffffffffffffffffffffffffffffffffffffff167f8c5be1e5ebec7d5bd14f71427d1e84f3dd0314c0f7b2291e5b200ac8c7c3b92584604051610b2b9190610f2f565b60405180910390a35b50505050565b600073ffffffffffffffffffffffffffffffffffffffff168373ffffffffffffffffffffffffffffffffffffffff1603610b8c578060026000828254610b809190611131565b92505081905550610c5f565b60008060008573ffffffffffffffffffffffffffffffffffffffff1673ffffffffffffffffffffffffffffffffffffffff16815260200190815260200160002054905081811015610c18578381836040517fe450d38c000000000000000000000000000000000000000000000000000000008152600401610c0f939291906110cb565b60405180910390fd5b8181036000808673ffffffffffffffffffffffffffffffffffffffff1673ffffffffffffffffffffffffffffffffffffffff16815260200190815260200160002081905550505b600073ffffffffffffffffffffffffffffffffffffffff168273ffffffffffffffffffffffffffffffffffffffff1603610ca85780600260008282540392505081905550610cf5565b806000808473ffffffffffffffffffffffffffffffffffffffff1673ffffffffffffffffffffffffffffffffffffffff168152602001908152602001600020600082825401925050819055505b8173ffffffffffffffffffffffffffffffffffffffff168373ffffffffffffffffffffffffffffffffffffffff167fddf252ad1be2c89b69c2b068fc378daa952ba7f163c4a11628f55a4df523b3ef83604051610d529190610f2f565b60405180910390a3505050565b600081519050919050565b600082825260208201905092915050565b60005b83811015610d99578082015181840152602081019050610d7e565b60008484015250505050565b6000601f19601f8301169050919050565b6000610dc182610d5f565b610dcb8185610d6a565b9350610ddb818560208601610d7b565b610de481610da5565b840191505092915050565b60006020820190508181036000830152610e098184610db6565b905092915050565b600080fd5b600073ffffffffffffffffffffffffffffffffffffffff82169050919050565b6000610e4182610e16565b9050919050565b610e5181610e36565b8114610e5c57600080fd5b50565b600081359050610e6e81610e48565b92915050565b6000819050919050565b610e8781610e74565b8114610e9257600080fd5b50565b600081359050610ea481610e7e565b92915050565b60008060408385031215610ec157610ec0610e11565b5b6000610ecf85828601610e5f565b9250506020610ee085828601610e95565b9150509250929050565b60008115159050919050565b610eff81610eea565b82525050565b6000602082019050610f1a6000830184610ef6565b92915050565b610f2981610e74565b82525050565b6000602082019050610f446000830184610f20565b92915050565b600080600060608486031215610f6357610f62610e11565b5b6000610f7186828701610e5f565b9350506020610f8286828701610e5f565b9250506040610f9386828701610e95565b9150509250925092565b600060ff82169050919050565b610fb381610f9d565b82525050565b6000602082019050610fce6000830184610faa565b92915050565b600060208284031215610fea57610fe9610e11565b5b6000610ff884828501610e5f565b91505092915050565b61100a81610e36565b82525050565b60006020820190506110256000830184611001565b92915050565b6000806040838503121561104257611041610e11565b5b600061105085828601610e5f565b925050602061106185828601610e5f565b9150509250929050565b7f4e487b7100000000000000000000000000000000000000000000000000000000600052602260045260246000fd5b600060028204905060018216806110b257607f821691505b6020821081036110c5576110c461106b565b5b50919050565b60006060820190506110e06000830186611001565b6110ed6020830185610f20565b6110fa6040830184610f20565b949350505050565b7f4e487b7100000000000000000000000000000000000000000000000000000000600052601160045260246000fd5b600061113c82610e74565b915061114783610e74565b925082820190508082111561115f5761115e611102565b5b9291505056fea264697066735822122025a00df0c04d69c09b877dc36f05af0017e694d93206911e42f89c0063c20baa64736f6c63430008140033a264697066735822122001854fb9327483e2f75b4ff2ee3ae6fef3abe5092c23b0fd2881d4ed8fe594d564736f6c63430008140033",
  "linkReferences": {},
  "deployedLinkReferences": {}
}